{
  "contractName": "DexAggregator",
  "abi": [
    {
      "inputs": [
        {
          "internalType": "address",
          "name": "_sushiAddress",
          "type": "address"
        },
        {
          "internalType": "address",
          "name": "_usdcAddress",
          "type": "address"
        }
      ],
      "stateMutability": "nonpayable",
      "type": "constructor"
    },
    {
      "anonymous": false,
      "inputs": [
        {
          "indexed": false,
          "internalType": "uint256",
          "name": "usdcAmountBought",
          "type": "uint256"
        },
        {
          "indexed": false,
          "internalType": "uint256",
          "name": "ethAmountSold",
          "type": "uint256"
        },
        {
          "indexed": false,
          "internalType": "address",
          "name": "dex",
          "type": "address"
        },
        {
          "indexed": false,
          "internalType": "uint256",
          "name": "nextBestUsdcOutput",
          "type": "uint256"
        }
      ],
      "name": "USDCBought",
      "type": "event"
    },
    {
      "anonymous": false,
      "inputs": [
        {
          "indexed": false,
          "internalType": "uint256",
          "name": "ethAmountBought",
          "type": "uint256"
        },
        {
          "indexed": false,
          "internalType": "uint256",
          "name": "usdcAmountSold",
          "type": "uint256"
        },
        {
          "indexed": false,
          "internalType": "address",
          "name": "dex",
          "type": "address"
        },
        {
          "indexed": false,
          "internalType": "uint256",
          "name": "nextBestEthOutput",
          "type": "uint256"
        }
      ],
      "name": "USDCSold",
      "type": "event"
    },
    {
      "inputs": [
        {
          "internalType": "uint256",
          "name": "",
          "type": "uint256"
        }
      ],
      "name": "Dexes",
      "outputs": [
        {
          "internalType": "contract IDex",
          "name": "",
          "type": "address"
        }
      ],
      "stateMutability": "view",
      "type": "function",
      "constant": true
    },
    {
      "inputs": [],
      "name": "usdc",
      "outputs": [
        {
          "internalType": "contract IERC20",
          "name": "",
          "type": "address"
        }
      ],
      "stateMutability": "view",
      "type": "function",
      "constant": true
    },
    {
      "inputs": [],
      "name": "wethAddress",
      "outputs": [
        {
          "internalType": "address",
          "name": "",
          "type": "address"
        }
      ],
      "stateMutability": "view",
      "type": "function",
      "constant": true
    },
    {
      "stateMutability": "payable",
      "type": "receive",
      "payable": true
    },
    {
      "inputs": [
        {
          "internalType": "uint256",
          "name": "_amountIn",
          "type": "uint256"
        },
        {
          "internalType": "address[]",
          "name": "_path",
          "type": "address[]"
        }
      ],
      "name": "getOutputAmounts",
      "outputs": [
        {
          "internalType": "uint8",
          "name": "_bestPriceDex",
          "type": "uint8"
        },
        {
          "internalType": "uint256[]",
          "name": "_amounts",
          "type": "uint256[]"
        }
      ],
      "stateMutability": "view",
      "type": "function",
      "constant": true
    },
    {
      "inputs": [
        {
          "internalType": "uint256",
          "name": "_deadline",
          "type": "uint256"
        },
        {
          "internalType": "address[]",
          "name": "_path",
          "type": "address[]"
        }
      ],
      "name": "buyUSDCAtBestPrice",
      "outputs": [],
      "stateMutability": "payable",
      "type": "function",
      "payable": true
    },
    {
      "inputs": [
        {
          "internalType": "uint256",
          "name": "_USDCAmount",
          "type": "uint256"
        },
        {
          "internalType": "uint256",
          "name": "_deadline",
          "type": "uint256"
        },
        {
          "internalType": "address[]",
          "name": "_path",
          "type": "address[]"
        }
      ],
      "name": "sellUSDCAtBestPrice",
      "outputs": [],
      "stateMutability": "nonpayable",
      "type": "function"
    }
  ],
  "bytecode": "0x60c06040523480156200001157600080fd5b5060405162001c4e38038062001c4e83398181016040528101906200003791906200027d565b737a250d5630b4cf539739df2c5dacb4c659f2488d60008060028110620000635762000062620002c4565b5b0160006101000a81548173ffffffffffffffffffffffffffffffffffffffff021916908373ffffffffffffffffffffffffffffffffffffffff160217905550816000600160028110620000bb57620000ba620002c4565b5b0160006101000a81548173ffffffffffffffffffffffffffffffffffffffff021916908373ffffffffffffffffffffffffffffffffffffffff16021790555060008060028110620001115762000110620002c4565b5b0160009054906101000a900473ffffffffffffffffffffffffffffffffffffffff1673ffffffffffffffffffffffffffffffffffffffff1663ad5c46486040518163ffffffff1660e01b8152600401602060405180830381865afa1580156200017e573d6000803e3d6000fd5b505050506040513d601f19601f82011682018060405250810190620001a49190620002f3565b73ffffffffffffffffffffffffffffffffffffffff1660a08173ffffffffffffffffffffffffffffffffffffffff16815250508073ffffffffffffffffffffffffffffffffffffffff1660808173ffffffffffffffffffffffffffffffffffffffff1681525050505062000325565b600080fd5b600073ffffffffffffffffffffffffffffffffffffffff82169050919050565b6000620002458262000218565b9050919050565b620002578162000238565b81146200026357600080fd5b50565b60008151905062000277816200024c565b92915050565b6000806040838503121562000297576200029662000213565b5b6000620002a78582860162000266565b9250506020620002ba8582860162000266565b9150509250929050565b7f4e487b7100000000000000000000000000000000000000000000000000000000600052603260045260246000fd5b6000602082840312156200030c576200030b62000213565b5b60006200031c8482850162000266565b91505092915050565b60805160a0516118d26200037c6000396000818161017d015281816107140152610ae90152600081816101fb015281816102b30152818161038e01528181610449015281816106f00152610b6701526118d26000f3fe6080604052600436106100595760003560e01c80633c087c93146100655780633e413bee1461008e5780634f0e0ef3146100b9578063527ad505146100e4578063e46aba2814610122578063ed50367e1461013e57610060565b3661006057005b600080fd5b34801561007157600080fd5b5061008c60048036038101906100879190610eea565b61017b565b005b34801561009a57600080fd5b506100a36106ee565b6040516100b09190610fdd565b60405180910390f35b3480156100c557600080fd5b506100ce610712565b6040516100db9190611019565b60405180910390f35b3480156100f057600080fd5b5061010b60048036038101906101069190611034565b610736565b60405161011992919061116e565b60405180910390f35b61013c60048036038101906101379190611034565b610ae7565b005b34801561014a57600080fd5b506101656004803603810190610160919061119e565b610e05565b60405161017291906111ec565b60405180910390f35b7f000000000000000000000000000000000000000000000000000000000000000073ffffffffffffffffffffffffffffffffffffffff16828260018181106101c6576101c5611207565b5b90506020020160208101906101db9190611262565b73ffffffffffffffffffffffffffffffffffffffff1614801561027157507f000000000000000000000000000000000000000000000000000000000000000073ffffffffffffffffffffffffffffffffffffffff168282600081811061024457610243611207565b5b90506020020160208101906102599190611262565b73ffffffffffffffffffffffffffffffffffffffff16145b6102b0576040517f08c379a00000000000000000000000000000000000000000000000000000000081526004016102a7906112ec565b60405180910390fd5b837f000000000000000000000000000000000000000000000000000000000000000073ffffffffffffffffffffffffffffffffffffffff166370a08231336040518263ffffffff1660e01b815260040161030a9190611019565b602060405180830381865afa158015610327573d6000803e3d6000fd5b505050506040513d601f19601f8201168201806040525081019061034b9190611321565b101561038c576040517f08c379a0000000000000000000000000000000000000000000000000000000008152600401610383906113c0565b60405180910390fd5b7f000000000000000000000000000000000000000000000000000000000000000073ffffffffffffffffffffffffffffffffffffffff166323b872dd3330876040518463ffffffff1660e01b81526004016103e9939291906113ef565b6020604051808303816000875af1158015610408573d6000803e3d6000fd5b505050506040513d601f19601f8201168201806040525081019061042c919061145e565b61043557600080fd5b600080610443868585610736565b915091507f000000000000000000000000000000000000000000000000000000000000000073ffffffffffffffffffffffffffffffffffffffff1663095ea7b360008460ff166002811061049a57610499611207565b5b0160009054906101000a900473ffffffffffffffffffffffffffffffffffffffff16886040518363ffffffff1660e01b81526004016104da92919061148b565b6020604051808303816000875af11580156104f9573d6000803e3d6000fd5b505050506040513d601f19601f8201168201806040525081019061051d919061145e565b61055c576040517f08c379a000000000000000000000000000000000000000000000000000000000815260040161055390611500565b60405180910390fd5b60008260ff166002811061057357610572611207565b5b0160009054906101000a900473ffffffffffffffffffffffffffffffffffffffff1673ffffffffffffffffffffffffffffffffffffffff16634a25d94a826000815181106105c4576105c3611207565b5b6020026020010151888787338b6040518763ffffffff1660e01b81526004016105f2969594939291906115e3565b6000604051808303816000875af1158015610611573d6000803e3d6000fd5b505050506040513d6000823e3d601f19601f8201168201806040525081019061063a919061178e565b507f55f0ae2ed76ad34196708e96c0fdb1d706ebae8a682fe0e68fcf556ad8a4585a816000815181106106705761066f611207565b5b60200260200101518760008560ff16600281106106905761068f611207565b5b0160009054906101000a900473ffffffffffffffffffffffffffffffffffffffff16846001815181106106c6576106c5611207565b5b60200260200101516040516106de94939291906117d7565b60405180910390a1505050505050565b7f000000000000000000000000000000000000000000000000000000000000000081565b7f000000000000000000000000000000000000000000000000000000000000000081565b60006060600267ffffffffffffffff81111561075557610754611650565b5b6040519080825280602002602001820160405280156107835781602001602082028036833780820191505090505b5090506000806002811061079a57610799611207565b5b0160009054906101000a900473ffffffffffffffffffffffffffffffffffffffff1673ffffffffffffffffffffffffffffffffffffffff1663d06ca61f8686866040518463ffffffff1660e01b81526004016107f89392919061181c565b600060405180830381865afa158015610815573d6000803e3d6000fd5b505050506040513d6000823e3d601f19601f8201168201806040525081019061083e919061178e565b60018151811061085157610850611207565b5b60200260200101518160008151811061086d5761086c611207565b5b602002602001018181525050600060016002811061088e5761088d611207565b5b0160009054906101000a900473ffffffffffffffffffffffffffffffffffffffff1673ffffffffffffffffffffffffffffffffffffffff1663d06ca61f8686866040518463ffffffff1660e01b81526004016108ec9392919061181c565b600060405180830381865afa158015610909573d6000803e3d6000fd5b505050506040513d6000823e3d601f19601f82011682018060405250810190610932919061178e565b60018151811061094557610944611207565b5b60200260200101518160018151811061096157610960611207565b5b6020026020010181815250508060008151811061098157610980611207565b5b60200260200101518160018151811061099d5761099c611207565b5b60200260200101511115610adf57806001815181106109bf576109be611207565b5b6020026020010151816000815181106109db576109da611207565b5b602002602001018181525050600080600281106109fb576109fa611207565b5b0160009054906101000a900473ffffffffffffffffffffffffffffffffffffffff1673ffffffffffffffffffffffffffffffffffffffff1663d06ca61f8686866040518463ffffffff1660e01b8152600401610a599392919061181c565b600060405180830381865afa158015610a76573d6000803e3d6000fd5b505050506040513d6000823e3d601f19601f82011682018060405250810190610a9f919061178e565b600181518110610ab257610ab1611207565b5b602002602001015181600181518110610ace57610acd611207565b5b602002602001018181525050600191505b935093915050565b7f000000000000000000000000000000000000000000000000000000000000000073ffffffffffffffffffffffffffffffffffffffff1682826000818110610b3257610b31611207565b5b9050602002016020810190610b479190611262565b73ffffffffffffffffffffffffffffffffffffffff16148015610bdd57507f000000000000000000000000000000000000000000000000000000000000000073ffffffffffffffffffffffffffffffffffffffff1682826001818110610bb057610baf611207565b5b9050602002016020810190610bc59190611262565b73ffffffffffffffffffffffffffffffffffffffff16145b610c1c576040517f08c379a0000000000000000000000000000000000000000000000000000000008152600401610c13906112ec565b60405180910390fd5b600080610c2a348585610736565b9150915060008260ff1660028110610c4557610c44611207565b5b0160009054906101000a900473ffffffffffffffffffffffffffffffffffffffff1673ffffffffffffffffffffffffffffffffffffffff1663fb3bdb413483600081518110610c9757610c96611207565b5b60200260200101518787338b6040518763ffffffff1660e01b8152600401610cc395949392919061184e565b60006040518083038185885af1158015610ce1573d6000803e3d6000fd5b50505050506040513d6000823e3d601f19601f82011682018060405250810190610d0b919061178e565b507f9a177801d027f4ce8afacfb555834d4bcc9e5571653bd2f801f494c8c59b1bfa81600081518110610d4157610d40611207565b5b60200260200101513460008560ff1660028110610d6157610d60611207565b5b0160009054906101000a900473ffffffffffffffffffffffffffffffffffffffff1684600181518110610d9757610d96611207565b5b6020026020010151604051610daf94939291906117d7565b60405180910390a13373ffffffffffffffffffffffffffffffffffffffff166108fc479081150290604051600060405180830381858888f19350505050158015610dfd573d6000803e3d6000fd5b505050505050565b60008160028110610e1557600080fd5b016000915054906101000a900473ffffffffffffffffffffffffffffffffffffffff1681565b6000604051905090565b600080fd5b600080fd5b6000819050919050565b610e6281610e4f565b8114610e6d57600080fd5b50565b600081359050610e7f81610e59565b92915050565b600080fd5b600080fd5b600080fd5b60008083601f840112610eaa57610ea9610e85565b5b8235905067ffffffffffffffff811115610ec757610ec6610e8a565b5b602083019150836020820283011115610ee357610ee2610e8f565b5b9250929050565b60008060008060608587031215610f0457610f03610e45565b5b6000610f1287828801610e70565b9450506020610f2387828801610e70565b935050604085013567ffffffffffffffff811115610f4457610f43610e4a565b5b610f5087828801610e94565b925092505092959194509250565b600073ffffffffffffffffffffffffffffffffffffffff82169050919050565b6000819050919050565b6000610fa3610f9e610f9984610f5e565b610f7e565b610f5e565b9050919050565b6000610fb582610f88565b9050919050565b6000610fc782610faa565b9050919050565b610fd781610fbc565b82525050565b6000602082019050610ff26000830184610fce565b92915050565b600061100382610f5e565b9050919050565b61101381610ff8565b82525050565b600060208201905061102e600083018461100a565b92915050565b60008060006040848603121561104d5761104c610e45565b5b600061105b86828701610e70565b935050602084013567ffffffffffffffff81111561107c5761107b610e4a565b5b61108886828701610e94565b92509250509250925092565b600060ff82169050919050565b6110aa81611094565b82525050565b600081519050919050565b600082825260208201905092915050565b6000819050602082019050919050565b6110e581610e4f565b82525050565b60006110f783836110dc565b60208301905092915050565b6000602082019050919050565b600061111b826110b0565b61112581856110bb565b9350611130836110cc565b8060005b8381101561116157815161114888826110eb565b975061115383611103565b925050600181019050611134565b5085935050505092915050565b600060408201905061118360008301856110a1565b81810360208301526111958184611110565b90509392505050565b6000602082840312156111b4576111b3610e45565b5b60006111c284828501610e70565b91505092915050565b60006111d682610faa565b9050919050565b6111e6816111cb565b82525050565b600060208201905061120160008301846111dd565b92915050565b7f4e487b7100000000000000000000000000000000000000000000000000000000600052603260045260246000fd5b61123f81610ff8565b811461124a57600080fd5b50565b60008135905061125c81611236565b92915050565b60006020828403121561127857611277610e45565b5b60006112868482850161124d565b91505092915050565b600082825260208201905092915050565b7f57726f6e6720746f6b656e207061697220617272617900000000000000000000600082015250565b60006112d660168361128f565b91506112e1826112a0565b602082019050919050565b60006020820190508181036000830152611305816112c9565b9050919050565b60008151905061131b81610e59565b92915050565b60006020828403121561133757611336610e45565b5b60006113458482850161130c565b91505092915050565b7f4572726f722c2063616e27742073656c6c206d6f72652055534443207468616e60008201527f206f776e65640000000000000000000000000000000000000000000000000000602082015250565b60006113aa60268361128f565b91506113b58261134e565b604082019050919050565b600060208201905081810360008301526113d98161139d565b9050919050565b6113e981610e4f565b82525050565b6000606082019050611404600083018661100a565b611411602083018561100a565b61141e60408301846113e0565b949350505050565b60008115159050919050565b61143b81611426565b811461144657600080fd5b50565b60008151905061145881611432565b92915050565b60006020828403121561147457611473610e45565b5b600061148284828501611449565b91505092915050565b60006040820190506114a0600083018561100a565b6114ad60208301846113e0565b9392505050565b7f617070726f7665206661696c65642e0000000000000000000000000000000000600082015250565b60006114ea600f8361128f565b91506114f5826114b4565b602082019050919050565b60006020820190508181036000830152611519816114dd565b9050919050565b600082825260208201905092915050565b6000819050919050565b61154481610ff8565b82525050565b6000611556838361153b565b60208301905092915050565b6000611571602084018461124d565b905092915050565b6000602082019050919050565b60006115928385611520565b935061159d82611531565b8060005b858110156115d6576115b38284611562565b6115bd888261154a565b97506115c883611579565b9250506001810190506115a1565b5085925050509392505050565b600060a0820190506115f860008301896113e0565b61160560208301886113e0565b8181036040830152611618818688611586565b9050611627606083018561100a565b61163460808301846113e0565b979650505050505050565b6000601f19601f8301169050919050565b7f4e487b7100000000000000000000000000000000000000000000000000000000600052604160045260246000fd5b6116888261163f565b810181811067ffffffffffffffff821117156116a7576116a6611650565b5b80604052505050565b60006116ba610e3b565b90506116c6828261167f565b919050565b600067ffffffffffffffff8211156116e6576116e5611650565b5b602082029050602081019050919050565b600061170a611705846116cb565b6116b0565b9050808382526020820190506020840283018581111561172d5761172c610e8f565b5b835b818110156117565780611742888261130c565b84526020840193505060208101905061172f565b5050509392505050565b600082601f83011261177557611774610e85565b5b81516117858482602086016116f7565b91505092915050565b6000602082840312156117a4576117a3610e45565b5b600082015167ffffffffffffffff8111156117c2576117c1610e4a565b5b6117ce84828501611760565b91505092915050565b60006080820190506117ec60008301876113e0565b6117f960208301866113e0565b611806604083018561100a565b61181360608301846113e0565b95945050505050565b600060408201905061183160008301866113e0565b8181036020830152611844818486611586565b9050949350505050565b600060808201905061186360008301886113e0565b8181036020830152611876818688611586565b9050611885604083018561100a565b61189260608301846113e0565b969550505050505056fea264697066735822122073eb92b99a723cc55872f4698386a4379438ab65eaac7991d6a4d237b1e85c5664736f6c634300080b0033",
  "immutableReferences": {
    "137": [
      {
        "length": 32,
        "start": 507
      },
      {
        "length": 32,
        "start": 691
      },
      {
        "length": 32,
        "start": 910
      },
      {
        "length": 32,
        "start": 1097
      },
      {
        "length": 32,
        "start": 1776
      },
      {
        "length": 32,
        "start": 2919
      }
    ],
    "139": [
      {
        "length": 32,
        "start": 381
      },
      {
        "length": 32,
        "start": 1812
      },
      {
        "length": 32,
        "start": 2793
      }
    ]
  },
  "source": "// SPDX-License-Identifier: MIT\npragma solidity ^0.8.11;\nimport '@openzeppelin/contracts/token/ERC20/IERC20.sol';\n//Code for the shared dex interface of sushiSwap and uniSwap.\ninterface IDex {\n    function WETH() external pure returns (address);\n    function swapTokensForExactETH(uint amountOut, uint amountInMax, address[] calldata path, address to, uint deadline)\n        external\n        returns (uint[] memory amounts);\n    function swapETHForExactTokens(uint amountOut, address[] calldata path, address to, uint deadline)\n        external\n        payable\n        returns (uint[] memory amounts);\n    function getAmountsOut(uint amountIn, address[] calldata path) external view returns (uint[] memory amounts);\n}\ncontract DexAggregator {\n    // Uniswap at index 0 and sushiswap at index 1\n    IDex[2] public Dexes;\n    IERC20 public immutable usdc;\n    address public immutable wethAddress;\n    /// @notice USDCBought event emitted on successful ETH to USDC swap. \n    event USDCBought(\n        uint256 usdcAmountBought, \n        uint256 ethAmountSold,\n        address dex, \n        uint256 nextBestUsdcOutput\n    );\n    /// @notice USDCSold event emitted on successful USDC to ETH swap.    \n    event USDCSold(\n        uint256 ethAmountBought,\n        uint256 usdcAmountSold, \n        address dex, \n        uint256 nextBestEthOutput\n    );\n    // Don't need to pass uni address to constructor b/c its the same across all networks.\n    constructor (address _sushiAddress, address _usdcAddress) {\n        // Don't need to pass uni address to constructor b/c its the same across all networks.\n        Dexes[0] = IDex(address(0x7a250d5630B4cF539739dF2C5dAcb4c659F2488D)); \n        Dexes[1] = IDex(_sushiAddress);\n        wethAddress = Dexes[0].WETH();\n        usdc = IERC20(_usdcAddress);\n    }\n    // important to recieve refunded ETH from either dex\n    receive() external payable {}\n    // Function that returns the index of the exchange with the highest output amount and the output amount from each exchange in an array\n    function getOutputAmounts(uint _amountIn, address[] calldata _path) public view returns(uint8 _bestPriceDex, uint[] memory _amounts){\n        //Create new in memory array of length 2\n        _amounts = new uint[] (2);\n        // fetch output amounts from each exchange\n        _amounts[0] = (Dexes[0].getAmountsOut(_amountIn, _path))[1];\n        _amounts[1] = (Dexes[1].getAmountsOut(_amountIn, _path))[1];\n        // If sushi amount is greater than uni amount, swap order of amounts array and set dex which offers the greater output index 0 (sushi)\n        if(_amounts[1] > _amounts[0]) {\n            _amounts[0] = _amounts[1];\n            _amounts[1] = (Dexes[0].getAmountsOut(_amountIn, _path))[1];\n            _bestPriceDex = 1;\n        }\n    }\n    function buyUSDCAtBestPrice(uint _deadline,address[] calldata _path) external payable {\n        require(_path[0] == wethAddress && _path[1] == address(usdc), \"Wrong token pair array\");\n        // get dex with best USDC price and output amounts for each exchange\n        (uint8 _dex, uint[] memory _USDCAmounts) = getOutputAmounts(msg.value, _path);\n        // Route trade to dex with best USDC price\n        Dexes[_dex].swapETHForExactTokens{ value: msg.value }(_USDCAmounts[0], _path, msg.sender, _deadline);\n        emit USDCBought(_USDCAmounts[0], msg.value, address(Dexes[_dex]), _USDCAmounts[1]);\n        // refund leftover ETH to user\n        payable(msg.sender).transfer(address(this).balance);\n    }\n    function sellUSDCAtBestPrice(uint _USDCAmount, uint _deadline, address[] calldata _path) external {\n        require(_path[1] == wethAddress && _path[0] == address(usdc), \"Wrong token pair array\");\n        require(usdc.balanceOf(msg.sender) >= _USDCAmount, \"Error, can't sell more USDC than owned\");\n        // Transfer the usdc amount from the user to this contract. \n        require(usdc.transferFrom(msg.sender, address(this), _USDCAmount));\n        // get dex with best ETH price and output amounts for each exchange\n        (uint8 _dex, uint[] memory _ETHAmounts) = getOutputAmounts(_USDCAmount, _path);\n        // approve dex with best ETH price to spend USDC tokens\n        require(usdc.approve(address(Dexes[_dex]), _USDCAmount), 'approve failed.');\n        // Route trade to dex with best ETH price\n        Dexes[_dex].swapTokensForExactETH(_ETHAmounts[0], _USDCAmount, _path, msg.sender, _deadline);\n        emit USDCSold(_ETHAmounts[0], _USDCAmount, address(Dexes[_dex]), _ETHAmounts[1]);\n    }\n}\n",
  "sourcePath": "/Users/ethancemer/Documents/dex-aggregator-tutorial/src/contracts/DexAggregator.sol",
  "compiler": {
    "name": "solc",
    "version": "0.8.11+commit.d7f03943.Emscripten.clang"
  },
  "schemaVersion": "3.4.3",
  "updatedAt": "2022-01-20T22:28:08.667Z",
  "networkType": "ethereum",
  "devdoc": {
    "kind": "dev",
    "methods": {},
    "version": 1
  },
  "userdoc": {
    "events": {
      "USDCBought(uint256,uint256,address,uint256)": {
        "notice": "USDCBought event emitted on successful ETH to USDC swap. "
      },
      "USDCSold(uint256,uint256,address,uint256)": {
        "notice": "USDCSold event emitted on successful USDC to ETH swap.    "
      }
    },
    "kind": "user",
    "methods": {},
    "version": 1
  }
}