{
  "contractName": "DexAggregator",
  "abi": [
    {
      "inputs": [
        {
          "internalType": "address",
          "name": "_sushiAddress",
          "type": "address"
        },
        {
          "internalType": "address",
          "name": "_usdc",
          "type": "address"
        }
      ],
      "stateMutability": "nonpayable",
      "type": "constructor"
    },
    {
      "anonymous": false,
      "inputs": [
        {
          "indexed": false,
          "internalType": "uint256",
          "name": "usdcAmountBought",
          "type": "uint256"
        },
        {
          "indexed": false,
          "internalType": "uint256",
          "name": "ethAmountSold",
          "type": "uint256"
        },
        {
          "indexed": false,
          "internalType": "address",
          "name": "router",
          "type": "address"
        },
        {
          "indexed": false,
          "internalType": "uint256",
          "name": "nextBestUsdcReturn",
          "type": "uint256"
        }
      ],
      "name": "USDCBought",
      "type": "event"
    },
    {
      "anonymous": false,
      "inputs": [
        {
          "indexed": false,
          "internalType": "uint256",
          "name": "ethAmountBought",
          "type": "uint256"
        },
        {
          "indexed": false,
          "internalType": "uint256",
          "name": "usdcAmountSold",
          "type": "uint256"
        },
        {
          "indexed": false,
          "internalType": "address",
          "name": "router",
          "type": "address"
        },
        {
          "indexed": false,
          "internalType": "uint256",
          "name": "nextBestEthReturn",
          "type": "uint256"
        }
      ],
      "name": "USDCSold",
      "type": "event"
    },
    {
      "inputs": [],
      "name": "sushiAddress",
      "outputs": [
        {
          "internalType": "address",
          "name": "",
          "type": "address"
        }
      ],
      "stateMutability": "view",
      "type": "function",
      "constant": true
    },
    {
      "inputs": [],
      "name": "uniAddress",
      "outputs": [
        {
          "internalType": "address",
          "name": "",
          "type": "address"
        }
      ],
      "stateMutability": "view",
      "type": "function",
      "constant": true
    },
    {
      "inputs": [],
      "name": "usdc",
      "outputs": [
        {
          "internalType": "contract IERC20",
          "name": "",
          "type": "address"
        }
      ],
      "stateMutability": "view",
      "type": "function",
      "constant": true
    },
    {
      "inputs": [],
      "name": "wethAddress",
      "outputs": [
        {
          "internalType": "address",
          "name": "",
          "type": "address"
        }
      ],
      "stateMutability": "view",
      "type": "function",
      "constant": true
    },
    {
      "stateMutability": "payable",
      "type": "receive",
      "payable": true
    },
    {
      "inputs": [
        {
          "internalType": "uint256",
          "name": "_amountIn",
          "type": "uint256"
        },
        {
          "internalType": "address[]",
          "name": "_tradingPair",
          "type": "address[]"
        }
      ],
      "name": "getReturnAmounts",
      "outputs": [
        {
          "internalType": "uint256",
          "name": "_uniReturn",
          "type": "uint256"
        },
        {
          "internalType": "uint256",
          "name": "_sushiReturn",
          "type": "uint256"
        }
      ],
      "stateMutability": "view",
      "type": "function",
      "constant": true
    },
    {
      "inputs": [
        {
          "internalType": "uint256",
          "name": "_deadline",
          "type": "uint256"
        }
      ],
      "name": "buyUSDCAtBestPrice",
      "outputs": [],
      "stateMutability": "payable",
      "type": "function",
      "payable": true
    },
    {
      "inputs": [
        {
          "internalType": "uint256",
          "name": "_USDCAmount",
          "type": "uint256"
        },
        {
          "internalType": "uint256",
          "name": "_deadline",
          "type": "uint256"
        }
      ],
      "name": "sellUSDCAtBestPrice",
      "outputs": [],
      "stateMutability": "nonpayable",
      "type": "function"
    }
  ],
  "bytecode": "0x6101006040523480156200001257600080fd5b50604051620019fc380380620019fc833981810160405281019062000038919062000201565b737a250d5630b4cf539739df2c5dacb4c659f2488d73ffffffffffffffffffffffffffffffffffffffff1660808173ffffffffffffffffffffffffffffffffffffffff16815250508173ffffffffffffffffffffffffffffffffffffffff1660a08173ffffffffffffffffffffffffffffffffffffffff16815250508073ffffffffffffffffffffffffffffffffffffffff1660c08173ffffffffffffffffffffffffffffffffffffffff168152505060805173ffffffffffffffffffffffffffffffffffffffff1663ad5c46486040518163ffffffff1660e01b8152600401602060405180830381865afa15801562000136573d6000803e3d6000fd5b505050506040513d601f19601f820116820180604052508101906200015c919062000248565b73ffffffffffffffffffffffffffffffffffffffff1660e08173ffffffffffffffffffffffffffffffffffffffff168152505050506200027a565b600080fd5b600073ffffffffffffffffffffffffffffffffffffffff82169050919050565b6000620001c9826200019c565b9050919050565b620001db81620001bc565b8114620001e757600080fd5b50565b600081519050620001fb81620001d0565b92915050565b600080604083850312156200021b576200021a62000197565b5b60006200022b85828601620001ea565b92505060206200023e85828601620001ea565b9150509250929050565b60006020828403121562000261576200026062000197565b5b60006200027184828501620001ea565b91505092915050565b60805160a05160c05160e0516116ca6200033260003960008181610390015281816105120152610717015260008181610367015281816103b10152818161053701528181610612015281816106f60152818161098f01526109fe01526000818161027f01528181610484015281816104d1015281816107ea0152818161083701526108790152600081816101b1015281816101da015281816103f5015281816104420152818161075b01526107a801526116ca6000f3fe6080604052600436106100745760003560e01c80634abb9ea21161004e5780634abb9ea2146101145780634f0e0ef314610130578063635c52ac1461015b578063efaa4134146101845761007b565b8063185bc395146100805780631b0f97ab146100ab5780633e413bee146100e95761007b565b3661007b57005b600080fd5b34801561008c57600080fd5b506100956101af565b6040516100a29190610ce7565b60405180910390f35b3480156100b757600080fd5b506100d260048036038101906100cd9190610ed1565b6101d3565b6040516100e0929190610f3c565b60405180910390f35b3480156100f557600080fd5b506100fe610365565b60405161010b9190610fc4565b60405180910390f35b61012e60048036038101906101299190610fdf565b610389565b005b34801561013c57600080fd5b50610145610510565b6040516101529190610ce7565b60405180910390f35b34801561016757600080fd5b50610182600480360381019061017d919061100c565b610534565b005b34801561019057600080fd5b50610199610877565b6040516101a69190610ce7565b60405180910390f35b7f000000000000000000000000000000000000000000000000000000000000000081565b60008060007f000000000000000000000000000000000000000000000000000000000000000073ffffffffffffffffffffffffffffffffffffffff1663d06ca61f86866040518363ffffffff1660e01b815260040161023392919061110a565b600060405180830381865afa158015610250573d6000803e3d6000fd5b505050506040513d6000823e3d601f19601f820116820180604052508101906102799190611212565b905060007f000000000000000000000000000000000000000000000000000000000000000073ffffffffffffffffffffffffffffffffffffffff1663d06ca61f87876040518363ffffffff1660e01b81526004016102d892919061110a565b600060405180830381865afa1580156102f5573d6000803e3d6000fd5b505050506040513d6000823e3d601f19601f8201168201806040525081019061031e9190611212565b9050816001815181106103345761033361125b565b5b60200260200101519350806001815181106103525761035161125b565b5b6020026020010151925050509250929050565b7f000000000000000000000000000000000000000000000000000000000000000081565b60006103d57f00000000000000000000000000000000000000000000000000000000000000007f000000000000000000000000000000000000000000000000000000000000000061089b565b90506000806103e434846101d3565b915091508082111561047f5761041d7f00000000000000000000000000000000000000000000000000000000000000008334878761098d565b7f9a177801d027f4ce8afacfb555834d4bcc9e5571653bd2f801f494c8c59b1bfa82347f000000000000000000000000000000000000000000000000000000000000000084604051610472949392919061128a565b60405180910390a161050a565b6104ac7f00000000000000000000000000000000000000000000000000000000000000008234878761098d565b7f9a177801d027f4ce8afacfb555834d4bcc9e5571653bd2f801f494c8c59b1bfa81347f000000000000000000000000000000000000000000000000000000000000000085604051610501949392919061128a565b60405180910390a15b50505050565b7f000000000000000000000000000000000000000000000000000000000000000081565b817f000000000000000000000000000000000000000000000000000000000000000073ffffffffffffffffffffffffffffffffffffffff166370a08231336040518263ffffffff1660e01b815260040161058e9190610ce7565b602060405180830381865afa1580156105ab573d6000803e3d6000fd5b505050506040513d601f19601f820116820180604052508101906105cf91906112cf565b1015610610576040517f08c379a00000000000000000000000000000000000000000000000000000000081526004016106079061137f565b60405180910390fd5b7f000000000000000000000000000000000000000000000000000000000000000073ffffffffffffffffffffffffffffffffffffffff166323b872dd3330856040518463ffffffff1660e01b815260040161066d9392919061139f565b6020604051808303816000875af115801561068c573d6000803e3d6000fd5b505050506040513d601f19601f820116820180604052508101906106b0919061140e565b6106ef576040517f08c379a00000000000000000000000000000000000000000000000000000000081526004016106e690611487565b60405180910390fd5b600061073b7f00000000000000000000000000000000000000000000000000000000000000007f000000000000000000000000000000000000000000000000000000000000000061089b565b905060008061074a85846101d3565b91509150808211156107e5576107837f00000000000000000000000000000000000000000000000000000000000000008387878761098d565b7f55f0ae2ed76ad34196708e96c0fdb1d706ebae8a682fe0e68fcf556ad8a4585a82867f0000000000000000000000000000000000000000000000000000000000000000846040516107d8949392919061128a565b60405180910390a1610870565b6108127f00000000000000000000000000000000000000000000000000000000000000008287878761098d565b7f55f0ae2ed76ad34196708e96c0fdb1d706ebae8a682fe0e68fcf556ad8a4585a81867f000000000000000000000000000000000000000000000000000000000000000085604051610867949392919061128a565b60405180910390a15b5050505050565b7f000000000000000000000000000000000000000000000000000000000000000081565b6060600267ffffffffffffffff8111156108b8576108b7610d62565b5b6040519080825280602002602001820160405280156108e65781602001602082028036833780820191505090505b50905082816000815181106108fe576108fd61125b565b5b602002602001019073ffffffffffffffffffffffffffffffffffffffff16908173ffffffffffffffffffffffffffffffffffffffff1681525050818160018151811061094d5761094c61125b565b5b602002602001019073ffffffffffffffffffffffffffffffffffffffff16908173ffffffffffffffffffffffffffffffffffffffff168152505092915050565b7f000000000000000000000000000000000000000000000000000000000000000073ffffffffffffffffffffffffffffffffffffffff16816000815181106109d8576109d761125b565b5b602002602001015173ffffffffffffffffffffffffffffffffffffffff161415610b68577f000000000000000000000000000000000000000000000000000000000000000073ffffffffffffffffffffffffffffffffffffffff1663095ea7b386856040518363ffffffff1660e01b8152600401610a579291906114a7565b6020604051808303816000875af1158015610a76573d6000803e3d6000fd5b505050506040513d601f19601f82011682018060405250810190610a9a919061140e565b610ad9576040517f08c379a0000000000000000000000000000000000000000000000000000000008152600401610ad09061151c565b60405180910390fd5b8473ffffffffffffffffffffffffffffffffffffffff16634a25d94a85858433876040518663ffffffff1660e01b8152600401610b1a95949392919061153c565b6000604051808303816000875af1158015610b39573d6000803e3d6000fd5b505050506040513d6000823e3d601f19601f82011682018060405250810190610b629190611212565b50610c9f565b8473ffffffffffffffffffffffffffffffffffffffff1663fb3bdb4134868433876040518663ffffffff1660e01b8152600401610ba89493929190611596565b60006040518083038185885af1158015610bc6573d6000803e3d6000fd5b50505050506040513d6000823e3d601f19601f82011682018060405250810190610bf09190611212565b5060003373ffffffffffffffffffffffffffffffffffffffff1647604051610c1790611613565b60006040518083038185875af1925050503d8060008114610c54576040519150601f19603f3d011682016040523d82523d6000602084013e610c59565b606091505b5050905080610c9d576040517f08c379a0000000000000000000000000000000000000000000000000000000008152600401610c9490611674565b60405180910390fd5b505b5050505050565b600073ffffffffffffffffffffffffffffffffffffffff82169050919050565b6000610cd182610ca6565b9050919050565b610ce181610cc6565b82525050565b6000602082019050610cfc6000830184610cd8565b92915050565b6000604051905090565b600080fd5b600080fd5b6000819050919050565b610d2981610d16565b8114610d3457600080fd5b50565b600081359050610d4681610d20565b92915050565b600080fd5b6000601f19601f8301169050919050565b7f4e487b7100000000000000000000000000000000000000000000000000000000600052604160045260246000fd5b610d9a82610d51565b810181811067ffffffffffffffff82111715610db957610db8610d62565b5b80604052505050565b6000610dcc610d02565b9050610dd88282610d91565b919050565b600067ffffffffffffffff821115610df857610df7610d62565b5b602082029050602081019050919050565b600080fd5b610e1781610cc6565b8114610e2257600080fd5b50565b600081359050610e3481610e0e565b92915050565b6000610e4d610e4884610ddd565b610dc2565b90508083825260208201905060208402830185811115610e7057610e6f610e09565b5b835b81811015610e995780610e858882610e25565b845260208401935050602081019050610e72565b5050509392505050565b600082601f830112610eb857610eb7610d4c565b5b8135610ec8848260208601610e3a565b91505092915050565b60008060408385031215610ee857610ee7610d0c565b5b6000610ef685828601610d37565b925050602083013567ffffffffffffffff811115610f1757610f16610d11565b5b610f2385828601610ea3565b9150509250929050565b610f3681610d16565b82525050565b6000604082019050610f516000830185610f2d565b610f5e6020830184610f2d565b9392505050565b6000819050919050565b6000610f8a610f85610f8084610ca6565b610f65565b610ca6565b9050919050565b6000610f9c82610f6f565b9050919050565b6000610fae82610f91565b9050919050565b610fbe81610fa3565b82525050565b6000602082019050610fd96000830184610fb5565b92915050565b600060208284031215610ff557610ff4610d0c565b5b600061100384828501610d37565b91505092915050565b6000806040838503121561102357611022610d0c565b5b600061103185828601610d37565b925050602061104285828601610d37565b9150509250929050565b600081519050919050565b600082825260208201905092915050565b6000819050602082019050919050565b61108181610cc6565b82525050565b60006110938383611078565b60208301905092915050565b6000602082019050919050565b60006110b78261104c565b6110c18185611057565b93506110cc83611068565b8060005b838110156110fd5781516110e48882611087565b97506110ef8361109f565b9250506001810190506110d0565b5085935050505092915050565b600060408201905061111f6000830185610f2d565b818103602083015261113181846110ac565b90509392505050565b600067ffffffffffffffff82111561115557611154610d62565b5b602082029050602081019050919050565b60008151905061117581610d20565b92915050565b600061118e6111898461113a565b610dc2565b905080838252602082019050602084028301858111156111b1576111b0610e09565b5b835b818110156111da57806111c68882611166565b8452602084019350506020810190506111b3565b5050509392505050565b600082601f8301126111f9576111f8610d4c565b5b815161120984826020860161117b565b91505092915050565b60006020828403121561122857611227610d0c565b5b600082015167ffffffffffffffff81111561124657611245610d11565b5b611252848285016111e4565b91505092915050565b7f4e487b7100000000000000000000000000000000000000000000000000000000600052603260045260246000fd5b600060808201905061129f6000830187610f2d565b6112ac6020830186610f2d565b6112b96040830185610cd8565b6112c66060830184610f2d565b95945050505050565b6000602082840312156112e5576112e4610d0c565b5b60006112f384828501611166565b91505092915050565b600082825260208201905092915050565b7f4572726f722c2063616e27742073656c6c206d6f72652055534443207468616e60008201527f206f776e65640000000000000000000000000000000000000000000000000000602082015250565b60006113696026836112fc565b91506113748261130d565b604082019050919050565b600060208201905081810360008301526113988161135c565b9050919050565b60006060820190506113b46000830186610cd8565b6113c16020830185610cd8565b6113ce6040830184610f2d565b949350505050565b60008115159050919050565b6113eb816113d6565b81146113f657600080fd5b50565b600081519050611408816113e2565b92915050565b60006020828403121561142457611423610d0c565b5b6000611432848285016113f9565b91505092915050565b7f7472616e7366657246726f6d206661696c65642e000000000000000000000000600082015250565b60006114716014836112fc565b915061147c8261143b565b602082019050919050565b600060208201905081810360008301526114a081611464565b9050919050565b60006040820190506114bc6000830185610cd8565b6114c96020830184610f2d565b9392505050565b7f617070726f7665206661696c65642e0000000000000000000000000000000000600082015250565b6000611506600f836112fc565b9150611511826114d0565b602082019050919050565b60006020820190508181036000830152611535816114f9565b9050919050565b600060a0820190506115516000830188610f2d565b61155e6020830187610f2d565b818103604083015261157081866110ac565b905061157f6060830185610cd8565b61158c6080830184610f2d565b9695505050505050565b60006080820190506115ab6000830187610f2d565b81810360208301526115bd81866110ac565b90506115cc6040830185610cd8565b6115d96060830184610f2d565b95945050505050565b600081905092915050565b50565b60006115fd6000836115e2565b9150611608826115ed565b600082019050919050565b600061161e826115f0565b9150819050919050565b7f726566756e64206661696c656400000000000000000000000000000000000000600082015250565b600061165e600d836112fc565b915061166982611628565b602082019050919050565b6000602082019050818103600083015261168d81611651565b905091905056fea26469706673582212205ba6a49d7afe3390eed46b481349ef1c08b51c01ce1f505212b0bbe25632ed4a64736f6c634300080b0033",
  "immutableReferences": {
    "439": [
      {
        "length": 32,
        "start": 433
      },
      {
        "length": 32,
        "start": 474
      },
      {
        "length": 32,
        "start": 1013
      },
      {
        "length": 32,
        "start": 1090
      },
      {
        "length": 32,
        "start": 1883
      },
      {
        "length": 32,
        "start": 1960
      }
    ],
    "441": [
      {
        "length": 32,
        "start": 639
      },
      {
        "length": 32,
        "start": 1156
      },
      {
        "length": 32,
        "start": 1233
      },
      {
        "length": 32,
        "start": 2026
      },
      {
        "length": 32,
        "start": 2103
      },
      {
        "length": 32,
        "start": 2169
      }
    ],
    "444": [
      {
        "length": 32,
        "start": 871
      },
      {
        "length": 32,
        "start": 945
      },
      {
        "length": 32,
        "start": 1335
      },
      {
        "length": 32,
        "start": 1554
      },
      {
        "length": 32,
        "start": 1782
      },
      {
        "length": 32,
        "start": 2447
      },
      {
        "length": 32,
        "start": 2558
      }
    ],
    "446": [
      {
        "length": 32,
        "start": 912
      },
      {
        "length": 32,
        "start": 1298
      },
      {
        "length": 32,
        "start": 1815
      }
    ]
  },
  "source": "// SPDX-License-Identifier: MIT\n\npragma solidity ^0.8.10;\n\nimport '@openzeppelin/contracts/token/ERC20/IERC20.sol';\n\n//Code for the shared router interface of sushiSwap and uniSwap.\ninterface IRouter {\n    function WETH() external pure returns (address);\n    function swapTokensForExactETH(uint amountOut, uint amountInMax, address[] calldata path, address to, uint deadline)\n        external\n        returns (uint[] memory amounts);\n    function swapETHForExactTokens(uint amountOut, address[] calldata path, address to, uint deadline)\n        external\n        payable\n        returns (uint[] memory amounts);\n    function getAmountsOut(uint amountIn, address[] calldata path) external view returns (uint[] memory amounts);\n}\ncontract DexAggregator {\n    address public immutable uniAddress;\n    address public immutable sushiAddress;\n    IERC20 public immutable usdc;\n    address public immutable wethAddress;\n\n    /// @notice USDCBought event emitted on successful ETH to USDC swap. \n    event USDCBought(\n        uint256 usdcAmountBought, \n        uint256 ethAmountSold,\n        address router, \n        uint256 nextBestUsdcReturn\n    );\n    /// @notice USDCSold event emitted on successful USDC to ETH swap.    \n    event USDCSold(\n        uint256 ethAmountBought,\n        uint256 usdcAmountSold, \n        address router, \n        uint256 nextBestEthReturn\n    );\n    // No need to pass Uniswap router address to constructor b/c it's the same across all networks\n    constructor(address _sushiAddress, address _usdc){\n        uniAddress = address(0x7a250d5630B4cF539739dF2C5dAcb4c659F2488D);\n        sushiAddress = address(_sushiAddress);\n        usdc = IERC20(_usdc);\n        wethAddress = IRouter(uniAddress).WETH();\n    }\n    // Needed to receive refunded eth from exchange\n    receive() payable external {}\n    // function that fetches the return amounts from each exchange for a given swap.\n    function getReturnAmounts(uint _amountIn, address[] memory _tradingPair) public view returns(uint _uniReturn, uint _sushiReturn){\n        uint[] memory _uniAmounts = IRouter(uniAddress).getAmountsOut(_amountIn, _tradingPair);\n        uint[] memory _sushiAmounts = IRouter(sushiAddress).getAmountsOut(_amountIn, _tradingPair);\n        _uniReturn = _uniAmounts[1];\n        _sushiReturn = _sushiAmounts[1];\n    }\n    /// @notice Function that swaps the users ETH to USDC using the exchange that offers the best price.\n    function buyUSDCAtBestPrice(uint _deadline) external payable {\n        // Get traiding pair\n        address[] memory _pair = getTradingPair(wethAddress, address(usdc));\n        // Fetch the USDC return amount for each exchange\n        (uint _uniUSDCAmount, uint _sushiUSDCAmount) = getReturnAmounts(msg.value, _pair);\n        // Determine which exchange offers the greater return then route the swap to that exchange.\n        if(_uniUSDCAmount > _sushiUSDCAmount) {\n            routeSwap(uniAddress, _uniUSDCAmount, msg.value, _deadline, _pair);\n            emit USDCBought(_uniUSDCAmount, msg.value, uniAddress, _sushiUSDCAmount);\n        } else {\n            routeSwap(sushiAddress, _sushiUSDCAmount, msg.value, _deadline, _pair);\n            emit USDCBought(_sushiUSDCAmount, msg.value, sushiAddress, _uniUSDCAmount);\n        }\n    }\n    function sellUSDCAtBestPrice(uint _USDCAmount, uint _deadline) external {\n        require(usdc.balanceOf(msg.sender) >= _USDCAmount, \"Error, can't sell more USDC than owned\");\n        // Transfer the usdc amount from the user to this contract. User must approve this contract to transfer usdc on their behalf.\n        require(usdc.transferFrom(msg.sender, address(this), _USDCAmount), 'transferFrom failed.');\n        // Get traiding pair\n        address[] memory _pair = getTradingPair(address(usdc), wethAddress);\n        // Fetch the ETH return amount for each exchange\n        (uint _uniETHAmount, uint _sushiETHAmount) = getReturnAmounts(_USDCAmount, _pair);\n        // Determine which exchange offers the greater return then route the swap to that exchange.\n        if(_uniETHAmount > _sushiETHAmount) {\n            routeSwap(uniAddress, _uniETHAmount,  _USDCAmount, _deadline, _pair); \n            emit USDCSold(_uniETHAmount, _USDCAmount, uniAddress, _sushiETHAmount);\n        } else {\n            routeSwap(sushiAddress, _sushiETHAmount, _USDCAmount, _deadline, _pair);\n            emit USDCSold(_sushiETHAmount, _USDCAmount, sushiAddress, _uniETHAmount);\n        }       \n    }\n    /// Routes the swap to either the Uniswap or Sushiswap dex using their common interface.\n    function routeSwap(address _router, uint _amountOut, uint _amountIn, uint _deadline, address[] memory _pair) internal {\n        if(_pair[0] == address(usdc)){ \n            // approve router to spend _amountIn tokens\n            require(usdc.approve(_router, _amountIn), 'approve failed.');\n            IRouter(_router).swapTokensForExactETH(_amountOut, _amountIn,_pair, msg.sender, _deadline);\n\n        } else {\n            IRouter(_router).swapETHForExactTokens{ value: msg.value }(_amountOut,_pair,msg.sender, _deadline);\n            // refund leftover ETH to user\n            (bool success,) = msg.sender.call{ value: address(this).balance }(\"\");\n            require(success, \"refund failed\");\n        } \n    }\n    function getTradingPair(address _input, address _output) internal pure returns(address[] memory _path) {\n        // get trading path for router and getReturnAmount\n        _path = new address[](2);\n        _path[0] = _input;\n        _path[1] = _output;\n    }\n}",
  "sourcePath": "/Users/ethancemer/Documents/dex-aggregator/src/contracts/DexAggregator.sol",
  "compiler": {
    "name": "solc",
    "version": "0.8.11+commit.d7f03943.Emscripten.clang"
  },
  "schemaVersion": "3.4.3",
  "updatedAt": "2022-01-11T00:27:47.531Z",
  "networkType": "ethereum",
  "devdoc": {
    "kind": "dev",
    "methods": {},
    "version": 1
  },
  "userdoc": {
    "events": {
      "USDCBought(uint256,uint256,address,uint256)": {
        "notice": "USDCBought event emitted on successful ETH to USDC swap. "
      },
      "USDCSold(uint256,uint256,address,uint256)": {
        "notice": "USDCSold event emitted on successful USDC to ETH swap.    "
      }
    },
    "kind": "user",
    "methods": {
      "buyUSDCAtBestPrice(uint256)": {
        "notice": "Function that swaps the users ETH to USDC using the exchange that offers the best price."
      }
    },
    "version": 1
  }
}