{
  "contractName": "DexAggregator",
  "abi": [
    {
      "inputs": [
        {
          "internalType": "address",
          "name": "_sushiAddress",
          "type": "address"
        },
        {
          "internalType": "address",
          "name": "_usdcAddress",
          "type": "address"
        },
        {
          "internalType": "address",
          "name": "_wethAddress",
          "type": "address"
        }
      ],
      "stateMutability": "nonpayable",
      "type": "constructor"
    },
    {
      "anonymous": false,
      "inputs": [
        {
          "indexed": false,
          "internalType": "uint256",
          "name": "usdcAmountBought",
          "type": "uint256"
        },
        {
          "indexed": false,
          "internalType": "uint256",
          "name": "ethAmountSold",
          "type": "uint256"
        },
        {
          "indexed": false,
          "internalType": "address",
          "name": "dex",
          "type": "address"
        },
        {
          "indexed": false,
          "internalType": "uint256",
          "name": "nextBestUsdcReturn",
          "type": "uint256"
        }
      ],
      "name": "USDCBought",
      "type": "event"
    },
    {
      "anonymous": false,
      "inputs": [
        {
          "indexed": false,
          "internalType": "uint256",
          "name": "ethAmountBought",
          "type": "uint256"
        },
        {
          "indexed": false,
          "internalType": "uint256",
          "name": "usdcAmountSold",
          "type": "uint256"
        },
        {
          "indexed": false,
          "internalType": "address",
          "name": "dex",
          "type": "address"
        },
        {
          "indexed": false,
          "internalType": "uint256",
          "name": "nextBestEthReturn",
          "type": "uint256"
        }
      ],
      "name": "USDCSold",
      "type": "event"
    },
    {
      "inputs": [],
      "name": "UNI_ADDRESS",
      "outputs": [
        {
          "internalType": "address",
          "name": "",
          "type": "address"
        }
      ],
      "stateMutability": "view",
      "type": "function",
      "constant": true
    },
    {
      "inputs": [],
      "name": "sushiAddress",
      "outputs": [
        {
          "internalType": "address",
          "name": "",
          "type": "address"
        }
      ],
      "stateMutability": "view",
      "type": "function",
      "constant": true
    },
    {
      "inputs": [],
      "name": "usdcAddress",
      "outputs": [
        {
          "internalType": "address",
          "name": "",
          "type": "address"
        }
      ],
      "stateMutability": "view",
      "type": "function",
      "constant": true
    },
    {
      "inputs": [],
      "name": "wethAddress",
      "outputs": [
        {
          "internalType": "address",
          "name": "",
          "type": "address"
        }
      ],
      "stateMutability": "view",
      "type": "function",
      "constant": true
    },
    {
      "stateMutability": "payable",
      "type": "receive",
      "payable": true
    },
    {
      "inputs": [
        {
          "internalType": "uint256",
          "name": "_amountIn",
          "type": "uint256"
        },
        {
          "internalType": "address[]",
          "name": "_path",
          "type": "address[]"
        }
      ],
      "name": "getReturnAmounts",
      "outputs": [
        {
          "internalType": "uint256",
          "name": "_uniAmount",
          "type": "uint256"
        },
        {
          "internalType": "uint256",
          "name": "_sushiAmount",
          "type": "uint256"
        }
      ],
      "stateMutability": "view",
      "type": "function",
      "constant": true
    },
    {
      "inputs": [
        {
          "internalType": "uint256",
          "name": "_deadline",
          "type": "uint256"
        },
        {
          "internalType": "address[]",
          "name": "_path",
          "type": "address[]"
        }
      ],
      "name": "buyUSDCAtBestPrice",
      "outputs": [],
      "stateMutability": "payable",
      "type": "function",
      "payable": true
    },
    {
      "inputs": [
        {
          "internalType": "uint256",
          "name": "_USDCAmount",
          "type": "uint256"
        },
        {
          "internalType": "uint256",
          "name": "_deadline",
          "type": "uint256"
        },
        {
          "internalType": "address[]",
          "name": "_path",
          "type": "address[]"
        }
      ],
      "name": "sellUSDCAtBestPrice",
      "outputs": [],
      "stateMutability": "nonpayable",
      "type": "function"
    }
  ],
  "bytecode": "0x60e06040523480156200001157600080fd5b506040516200192a3803806200192a833981810160405281019062000037919062000146565b8273ffffffffffffffffffffffffffffffffffffffff1660808173ffffffffffffffffffffffffffffffffffffffff16815250508173ffffffffffffffffffffffffffffffffffffffff1660a08173ffffffffffffffffffffffffffffffffffffffff16815250508073ffffffffffffffffffffffffffffffffffffffff1660c08173ffffffffffffffffffffffffffffffffffffffff1681525050505050620001a2565b600080fd5b600073ffffffffffffffffffffffffffffffffffffffff82169050919050565b60006200010e82620000e1565b9050919050565b620001208162000101565b81146200012c57600080fd5b50565b600081519050620001408162000115565b92915050565b600080600060608486031215620001625762000161620000dc565b5b600062000172868287016200012f565b935050602062000185868287016200012f565b925050604062000198868287016200012f565b9150509250925092565b60805160a05160c0516116f6620002346000396000818161036001528181610a2a0152610a660152600081816101b1015281816103de0152818161049601528181610571015281816106340152818161081b0152610ae40152600081816102750152818161085701528181610918015281816109e701528181610caa01528181610d780152610e0101526116f66000f3fe6080604052600436106100745760003560e01c80634f0e0ef31161004e5780634f0e0ef314610112578063ca68970f1461013d578063e46aba2814610168578063efaa4134146101845761007b565b806302d45457146100805780631b0f97ab146100ab5780633c087c93146100e95761007b565b3661007b57005b600080fd5b34801561008c57600080fd5b506100956101af565b6040516100a29190610e64565b60405180910390f35b3480156100b757600080fd5b506100d260048036038101906100cd9190610f2e565b6101d3565b6040516100e0929190610f9d565b60405180910390f35b3480156100f557600080fd5b50610110600480360381019061010b9190610fc6565b61035e565b005b34801561011e57600080fd5b50610127610a28565b6040516101349190610e64565b60405180910390f35b34801561014957600080fd5b50610152610a4c565b60405161015f9190610e64565b60405180910390f35b610182600480360381019061017d9190610f2e565b610a64565b005b34801561019057600080fd5b50610199610dff565b6040516101a69190610e64565b60405180910390f35b7f000000000000000000000000000000000000000000000000000000000000000081565b6000806000737a250d5630b4cf539739df2c5dacb4c659f2488d73ffffffffffffffffffffffffffffffffffffffff1663d06ca61f8787876040518463ffffffff1660e01b815260040161022993929190611129565b600060405180830381865afa158015610246573d6000803e3d6000fd5b505050506040513d6000823e3d601f19601f8201168201806040525081019061026f91906112bf565b905060007f000000000000000000000000000000000000000000000000000000000000000073ffffffffffffffffffffffffffffffffffffffff1663d06ca61f8888886040518463ffffffff1660e01b81526004016102d093929190611129565b600060405180830381865afa1580156102ed573d6000803e3d6000fd5b505050506040513d6000823e3d601f19601f8201168201806040525081019061031691906112bf565b90508160018151811061032c5761032b611308565b5b602002602001015193508060018151811061034a57610349611308565b5b602002602001015192505050935093915050565b7f000000000000000000000000000000000000000000000000000000000000000073ffffffffffffffffffffffffffffffffffffffff16828260018181106103a9576103a8611308565b5b90506020020160208101906103be9190611337565b73ffffffffffffffffffffffffffffffffffffffff1614801561045457507f000000000000000000000000000000000000000000000000000000000000000073ffffffffffffffffffffffffffffffffffffffff168282600081811061042757610426611308565b5b905060200201602081019061043c9190611337565b73ffffffffffffffffffffffffffffffffffffffff16145b610493576040517f08c379a000000000000000000000000000000000000000000000000000000000815260040161048a906113c1565b60405180910390fd5b837f000000000000000000000000000000000000000000000000000000000000000073ffffffffffffffffffffffffffffffffffffffff166370a08231336040518263ffffffff1660e01b81526004016104ed9190610e64565b602060405180830381865afa15801561050a573d6000803e3d6000fd5b505050506040513d601f19601f8201168201806040525081019061052e91906113e1565b101561056f576040517f08c379a000000000000000000000000000000000000000000000000000000000815260040161056690611480565b60405180910390fd5b7f000000000000000000000000000000000000000000000000000000000000000073ffffffffffffffffffffffffffffffffffffffff166323b872dd3330876040518463ffffffff1660e01b81526004016105cc939291906114a0565b6020604051808303816000875af11580156105eb573d6000803e3d6000fd5b505050506040513d601f19601f8201168201806040525081019061060f919061150f565b61061857600080fd5b6000806106268685856101d3565b9150915080821115610819577f000000000000000000000000000000000000000000000000000000000000000073ffffffffffffffffffffffffffffffffffffffff1663095ea7b3737a250d5630b4cf539739df2c5dacb4c659f2488d886040518363ffffffff1660e01b81526004016106a192919061153c565b6020604051808303816000875af11580156106c0573d6000803e3d6000fd5b505050506040513d601f19601f820116820180604052508101906106e4919061150f565b610723576040517f08c379a000000000000000000000000000000000000000000000000000000000815260040161071a906115b1565b60405180910390fd5b737a250d5630b4cf539739df2c5dacb4c659f2488d73ffffffffffffffffffffffffffffffffffffffff16634a25d94a83888787338b6040518763ffffffff1660e01b815260040161077a969594939291906115d1565b6000604051808303816000875af1158015610799573d6000803e3d6000fd5b505050506040513d6000823e3d601f19601f820116820180604052508101906107c291906112bf565b507f55f0ae2ed76ad34196708e96c0fdb1d706ebae8a682fe0e68fcf556ad8a4585a8287737a250d5630b4cf539739df2c5dacb4c659f2488d8460405161080c949392919061162d565b60405180910390a1610a20565b7f000000000000000000000000000000000000000000000000000000000000000073ffffffffffffffffffffffffffffffffffffffff1663095ea7b37f0000000000000000000000000000000000000000000000000000000000000000886040518363ffffffff1660e01b815260040161089492919061153c565b6020604051808303816000875af11580156108b3573d6000803e3d6000fd5b505050506040513d601f19601f820116820180604052508101906108d7919061150f565b610916576040517f08c379a000000000000000000000000000000000000000000000000000000000815260040161090d906115b1565b60405180910390fd5b7f000000000000000000000000000000000000000000000000000000000000000073ffffffffffffffffffffffffffffffffffffffff16634a25d94a82888787338b6040518763ffffffff1660e01b8152600401610979969594939291906115d1565b6000604051808303816000875af1158015610998573d6000803e3d6000fd5b505050506040513d6000823e3d601f19601f820116820180604052508101906109c191906112bf565b507f55f0ae2ed76ad34196708e96c0fdb1d706ebae8a682fe0e68fcf556ad8a4585a81877f000000000000000000000000000000000000000000000000000000000000000085604051610a17949392919061162d565b60405180910390a15b505050505050565b7f000000000000000000000000000000000000000000000000000000000000000081565b737a250d5630b4cf539739df2c5dacb4c659f2488d81565b7f000000000000000000000000000000000000000000000000000000000000000073ffffffffffffffffffffffffffffffffffffffff1682826000818110610aaf57610aae611308565b5b9050602002016020810190610ac49190611337565b73ffffffffffffffffffffffffffffffffffffffff16148015610b5a57507f000000000000000000000000000000000000000000000000000000000000000073ffffffffffffffffffffffffffffffffffffffff1682826001818110610b2d57610b2c611308565b5b9050602002016020810190610b429190611337565b73ffffffffffffffffffffffffffffffffffffffff16145b610b99576040517f08c379a0000000000000000000000000000000000000000000000000000000008152600401610b90906113c1565b60405180910390fd5b600080610ba73485856101d3565b9150915080821115610ca857737a250d5630b4cf539739df2c5dacb4c659f2488d73ffffffffffffffffffffffffffffffffffffffff1663fb3bdb4134848787338b6040518763ffffffff1660e01b8152600401610c09959493929190611672565b60006040518083038185885af1158015610c27573d6000803e3d6000fd5b50505050506040513d6000823e3d601f19601f82011682018060405250810190610c5191906112bf565b507f9a177801d027f4ce8afacfb555834d4bcc9e5571653bd2f801f494c8c59b1bfa8234737a250d5630b4cf539739df2c5dacb4c659f2488d84604051610c9b949392919061162d565b60405180910390a1610db1565b7f000000000000000000000000000000000000000000000000000000000000000073ffffffffffffffffffffffffffffffffffffffff1663fb3bdb4134838787338b6040518763ffffffff1660e01b8152600401610d0a959493929190611672565b60006040518083038185885af1158015610d28573d6000803e3d6000fd5b50505050506040513d6000823e3d601f19601f82011682018060405250810190610d5291906112bf565b507f9a177801d027f4ce8afacfb555834d4bcc9e5571653bd2f801f494c8c59b1bfa81347f000000000000000000000000000000000000000000000000000000000000000085604051610da8949392919061162d565b60405180910390a15b3373ffffffffffffffffffffffffffffffffffffffff166108fc479081150290604051600060405180830381858888f19350505050158015610df7573d6000803e3d6000fd5b505050505050565b7f000000000000000000000000000000000000000000000000000000000000000081565b600073ffffffffffffffffffffffffffffffffffffffff82169050919050565b6000610e4e82610e23565b9050919050565b610e5e81610e43565b82525050565b6000602082019050610e796000830184610e55565b92915050565b6000604051905090565b600080fd5b600080fd5b6000819050919050565b610ea681610e93565b8114610eb157600080fd5b50565b600081359050610ec381610e9d565b92915050565b600080fd5b600080fd5b600080fd5b60008083601f840112610eee57610eed610ec9565b5b8235905067ffffffffffffffff811115610f0b57610f0a610ece565b5b602083019150836020820283011115610f2757610f26610ed3565b5b9250929050565b600080600060408486031215610f4757610f46610e89565b5b6000610f5586828701610eb4565b935050602084013567ffffffffffffffff811115610f7657610f75610e8e565b5b610f8286828701610ed8565b92509250509250925092565b610f9781610e93565b82525050565b6000604082019050610fb26000830185610f8e565b610fbf6020830184610f8e565b9392505050565b60008060008060608587031215610fe057610fdf610e89565b5b6000610fee87828801610eb4565b9450506020610fff87828801610eb4565b935050604085013567ffffffffffffffff8111156110205761101f610e8e565b5b61102c87828801610ed8565b925092505092959194509250565b600082825260208201905092915050565b6000819050919050565b61105e81610e43565b82525050565b60006110708383611055565b60208301905092915050565b61108581610e43565b811461109057600080fd5b50565b6000813590506110a28161107c565b92915050565b60006110b76020840184611093565b905092915050565b6000602082019050919050565b60006110d8838561103a565b93506110e38261104b565b8060005b8581101561111c576110f982846110a8565b6111038882611064565b975061110e836110bf565b9250506001810190506110e7565b5085925050509392505050565b600060408201905061113e6000830186610f8e565b81810360208301526111518184866110cc565b9050949350505050565b6000601f19601f8301169050919050565b7f4e487b7100000000000000000000000000000000000000000000000000000000600052604160045260246000fd5b6111a48261115b565b810181811067ffffffffffffffff821117156111c3576111c261116c565b5b80604052505050565b60006111d6610e7f565b90506111e2828261119b565b919050565b600067ffffffffffffffff8211156112025761120161116c565b5b602082029050602081019050919050565b60008151905061122281610e9d565b92915050565b600061123b611236846111e7565b6111cc565b9050808382526020820190506020840283018581111561125e5761125d610ed3565b5b835b8181101561128757806112738882611213565b845260208401935050602081019050611260565b5050509392505050565b600082601f8301126112a6576112a5610ec9565b5b81516112b6848260208601611228565b91505092915050565b6000602082840312156112d5576112d4610e89565b5b600082015167ffffffffffffffff8111156112f3576112f2610e8e565b5b6112ff84828501611291565b91505092915050565b7f4e487b7100000000000000000000000000000000000000000000000000000000600052603260045260246000fd5b60006020828403121561134d5761134c610e89565b5b600061135b84828501611093565b91505092915050565b600082825260208201905092915050565b7f57726f6e6720746f6b656e207061697220617272617900000000000000000000600082015250565b60006113ab601683611364565b91506113b682611375565b602082019050919050565b600060208201905081810360008301526113da8161139e565b9050919050565b6000602082840312156113f7576113f6610e89565b5b600061140584828501611213565b91505092915050565b7f4572726f722c2063616e27742073656c6c206d6f72652055534443207468616e60008201527f206f776e65640000000000000000000000000000000000000000000000000000602082015250565b600061146a602683611364565b91506114758261140e565b604082019050919050565b600060208201905081810360008301526114998161145d565b9050919050565b60006060820190506114b56000830186610e55565b6114c26020830185610e55565b6114cf6040830184610f8e565b949350505050565b60008115159050919050565b6114ec816114d7565b81146114f757600080fd5b50565b600081519050611509816114e3565b92915050565b60006020828403121561152557611524610e89565b5b6000611533848285016114fa565b91505092915050565b60006040820190506115516000830185610e55565b61155e6020830184610f8e565b9392505050565b7f617070726f7665206661696c65642e0000000000000000000000000000000000600082015250565b600061159b600f83611364565b91506115a682611565565b602082019050919050565b600060208201905081810360008301526115ca8161158e565b9050919050565b600060a0820190506115e66000830189610f8e565b6115f36020830188610f8e565b81810360408301526116068186886110cc565b90506116156060830185610e55565b6116226080830184610f8e565b979650505050505050565b60006080820190506116426000830187610f8e565b61164f6020830186610f8e565b61165c6040830185610e55565b6116696060830184610f8e565b95945050505050565b60006080820190506116876000830188610f8e565b818103602083015261169a8186886110cc565b90506116a96040830185610e55565b6116b66060830184610f8e565b969550505050505056fea26469706673582212201c28130ab099019bf11c9695b4feee0a099cd58ed4d91c9d650b51463f6db2a364736f6c634300080b0033",
  "immutableReferences": {
    "126": [
      {
        "length": 32,
        "start": 629
      },
      {
        "length": 32,
        "start": 2135
      },
      {
        "length": 32,
        "start": 2328
      },
      {
        "length": 32,
        "start": 2535
      },
      {
        "length": 32,
        "start": 3242
      },
      {
        "length": 32,
        "start": 3448
      },
      {
        "length": 32,
        "start": 3585
      }
    ],
    "128": [
      {
        "length": 32,
        "start": 433
      },
      {
        "length": 32,
        "start": 990
      },
      {
        "length": 32,
        "start": 1174
      },
      {
        "length": 32,
        "start": 1393
      },
      {
        "length": 32,
        "start": 1588
      },
      {
        "length": 32,
        "start": 2075
      },
      {
        "length": 32,
        "start": 2788
      }
    ],
    "130": [
      {
        "length": 32,
        "start": 864
      },
      {
        "length": 32,
        "start": 2602
      },
      {
        "length": 32,
        "start": 2662
      }
    ]
  },
  "source": "// SPDX-License-Identifier: MIT\npragma solidity 0.8.11;\nimport '@openzeppelin/contracts/token/ERC20/IERC20.sol';\n//Code for the shared dex interface of sushiSwap and uniSwap.\ninterface IDex {\n    function swapTokensForExactETH(uint amountOut, uint amountInMax, address[] calldata path, address to, uint deadline)\n        external\n        returns (uint[] memory amounts);\n    function swapETHForExactTokens(uint amountOut, address[] calldata path, address to, uint deadline)\n        external\n        payable\n        returns (uint[] memory amounts);\n    function getAmountsOut(uint amountIn, address[] calldata path) external view returns (uint[] memory amounts);\n}\ncontract DexAggregator {\n    address public immutable sushiAddress;\n    address public immutable usdcAddress;\n    address public immutable wethAddress;\n    address public constant UNI_ADDRESS = address(0x7a250d5630B4cF539739dF2C5dAcb4c659F2488D);\n    /// @notice USDCBought event emitted on successful ETH to USDC swap. \n    event USDCBought(\n        uint256 usdcAmountBought, \n        uint256 ethAmountSold,\n        address dex, \n        uint256 nextBestUsdcReturn\n    );\n    /// @notice USDCSold event emitted on successful USDC to ETH swap.    \n    event USDCSold(\n        uint256 ethAmountBought,\n        uint256 usdcAmountSold, \n        address dex, \n        uint256 nextBestEthReturn\n    );\n    constructor (address _sushiAddress, address _usdcAddress, address _wethAddress) {\n        sushiAddress = _sushiAddress;\n        usdcAddress = _usdcAddress;\n        wethAddress = _wethAddress;\n    }\n    receive() external payable {}\n    function getReturnAmounts(uint _amountIn, address[] calldata _path) public view returns(uint _uniAmount, uint _sushiAmount){\n        uint[] memory _uniAmounts = IDex(UNI_ADDRESS).getAmountsOut(_amountIn, _path);\n        uint[] memory _sushiAmounts = IDex(sushiAddress).getAmountsOut(_amountIn, _path);\n        _uniAmount = _uniAmounts[1];\n        _sushiAmount = _sushiAmounts[1];\n    }\n    function buyUSDCAtBestPrice(uint _deadline,address[] calldata _path) external payable {\n        require(_path[0] == wethAddress && _path[1] == usdcAddress, \"Wrong token pair array\");\n        // get USDC return amounts for each exchange\n        (uint _uniUSDCAmount, uint _sushiUSDCAmount) = getReturnAmounts(msg.value, _path);\n        // determine which exchange offers the greater return then route the swap to that exchange.\n        if(_uniUSDCAmount > _sushiUSDCAmount) {\n            IDex(UNI_ADDRESS).swapETHForExactTokens{ value: msg.value }(_uniUSDCAmount, _path, msg.sender, _deadline);\n            emit USDCBought(_uniUSDCAmount, msg.value, UNI_ADDRESS, _sushiUSDCAmount);\n        } else {\n            IDex(sushiAddress).swapETHForExactTokens{ value: msg.value }(_sushiUSDCAmount, _path, msg.sender, _deadline);\n            emit USDCBought(_sushiUSDCAmount, msg.value, sushiAddress, _uniUSDCAmount);\n        }\n        // refund leftover ETH to user\n        payable(msg.sender).transfer(address(this).balance);\n    }\n    function sellUSDCAtBestPrice(uint _USDCAmount, uint _deadline, address[] calldata _path) external {\n        require(_path[1] == wethAddress && _path[0] == usdcAddress, \"Wrong token pair array\");\n        require(IERC20(usdcAddress).balanceOf(msg.sender) >= _USDCAmount, \"Error, can't sell more USDC than owned\");\n        // Transfer the usdc amount from the user to this contract. \n        require(IERC20(usdcAddress).transferFrom(msg.sender, address(this), _USDCAmount));\n        // get ETH return amounts for each exchange\n        (uint _uniETHAmount, uint _sushiETHAmount) = getReturnAmounts(_USDCAmount, _path);\n        // determine which exchange offers the greater return then route the swap to that exchange.\n        if(_uniETHAmount > _sushiETHAmount) {\n            // approve Uni to spend USDC tokens\n            require(IERC20(usdcAddress).approve(UNI_ADDRESS, _USDCAmount), 'approve failed.');\n            IDex(UNI_ADDRESS).swapTokensForExactETH(_uniETHAmount, _USDCAmount, _path, msg.sender, _deadline);\n            emit USDCSold(_uniETHAmount, _USDCAmount, UNI_ADDRESS, _sushiETHAmount);\n        } else {\n            // approve Sushi to spend USDC tokens\n            require(IERC20(usdcAddress).approve(sushiAddress, _USDCAmount), 'approve failed.');\n            IDex(sushiAddress).swapTokensForExactETH(_sushiETHAmount, _USDCAmount, _path, msg.sender, _deadline);\n            emit USDCSold(_sushiETHAmount, _USDCAmount, sushiAddress, _uniETHAmount);\n        }\n    }\n}\n",
  "sourcePath": "/Users/ethancemer/Documents/dex-aggregator-tutorial/src/contracts/DexAggregator.sol",
  "compiler": {
    "name": "solc",
    "version": "0.8.11+commit.d7f03943.Emscripten.clang"
  },
  "schemaVersion": "3.4.3",
  "updatedAt": "2022-01-14T18:01:13.233Z",
  "networkType": "ethereum",
  "devdoc": {
    "kind": "dev",
    "methods": {},
    "version": 1
  },
  "userdoc": {
    "events": {
      "USDCBought(uint256,uint256,address,uint256)": {
        "notice": "USDCBought event emitted on successful ETH to USDC swap. "
      },
      "USDCSold(uint256,uint256,address,uint256)": {
        "notice": "USDCSold event emitted on successful USDC to ETH swap.    "
      }
    },
    "kind": "user",
    "methods": {},
    "version": 1
  }
}