{
  "contractName": "TodoList",
  "abi": [
    {
      "anonymous": false,
      "inputs": [
        {
          "indexed": true,
          "internalType": "address",
          "name": "user",
          "type": "address"
        },
        {
          "indexed": false,
          "internalType": "string",
          "name": "message",
          "type": "string"
        },
        {
          "indexed": false,
          "internalType": "uint256",
          "name": "timestamp",
          "type": "uint256"
        }
      ],
      "name": "Add",
      "type": "event"
    },
    {
      "anonymous": false,
      "inputs": [
        {
          "indexed": true,
          "internalType": "address",
          "name": "user",
          "type": "address"
        },
        {
          "indexed": false,
          "internalType": "bool",
          "name": "completed",
          "type": "bool"
        },
        {
          "indexed": false,
          "internalType": "uint256",
          "name": "timestamp",
          "type": "uint256"
        }
      ],
      "name": "ToggleCompleted",
      "type": "event"
    },
    {
      "inputs": [
        {
          "internalType": "uint256",
          "name": "",
          "type": "uint256"
        }
      ],
      "name": "todos",
      "outputs": [
        {
          "internalType": "string",
          "name": "message",
          "type": "string"
        },
        {
          "internalType": "bool",
          "name": "completed",
          "type": "bool"
        }
      ],
      "stateMutability": "view",
      "type": "function",
      "constant": true
    },
    {
      "inputs": [
        {
          "internalType": "string",
          "name": "_message",
          "type": "string"
        }
      ],
      "name": "add",
      "outputs": [],
      "stateMutability": "nonpayable",
      "type": "function"
    },
    {
      "inputs": [
        {
          "internalType": "string",
          "name": "_message",
          "type": "string"
        },
        {
          "internalType": "uint256",
          "name": "_index",
          "type": "uint256"
        }
      ],
      "name": "updateMessage",
      "outputs": [],
      "stateMutability": "nonpayable",
      "type": "function"
    },
    {
      "inputs": [
        {
          "internalType": "uint256",
          "name": "_index",
          "type": "uint256"
        }
      ],
      "name": "toggleCompleted",
      "outputs": [],
      "stateMutability": "nonpayable",
      "type": "function"
    }
  ],
  "bytecode": "0x608060405234801561001057600080fd5b506108e3806100206000396000f3fe608060405234801561001057600080fd5b506004361061004c5760003560e01c8063455f5024146100515780637cc2cc2a1461006d578063b0c8f9dc14610089578063bc8bc2b4146100a5575b600080fd5b61006b60048036038101906100669190610554565b6100d6565b005b610087600480360381019061008291906105e6565b6101cc565b005b6100a3600480360381019061009e9190610646565b610206565b005b6100bf60048036038101906100ba9190610554565b610322565b6040516100cd929190610747565b60405180910390f35b600081815481106100ea576100e9610777565b5b906000526020600020906002020160010160009054906101000a900460ff16156000828154811061011e5761011d610777565b5b906000526020600020906002020160010160006101000a81548160ff0219169083151502179055503373ffffffffffffffffffffffffffffffffffffffff167f5cec777681eb9bcccb24dda79814dbe373d9d5a54f708153a74d6ec2bae0d9226000838154811061019257610191610777565b5b906000526020600020906002020160010160009054906101000a900460ff1615426040516101c19291906107b5565b60405180910390a250565b8282600083815481106101e2576101e1610777565b5b906000526020600020906002020160000191906102009291906103eb565b50505050565b6000604051806040016040528084848080601f016020809104026020016040519081016040528093929190818152602001838380828437600081840152601f19601f82011690508083019250505050505050815260200160001515815250908060018154018082558091505060019003906000526020600020906002020160009091909190915060008201518160000190805190602001906102a9929190610471565b5060208201518160010160006101000a81548160ff02191690831515021790555050503373ffffffffffffffffffffffffffffffffffffffff167f273453543f747ef51d1f548cb9e3c3ca813d108291a27f41f3602a9f9a47df838383426040516103169392919061081a565b60405180910390a25050565b6000818154811061033257600080fd5b90600052602060002090600202016000915090508060000180546103559061087b565b80601f01602080910402602001604051908101604052809291908181526020018280546103819061087b565b80156103ce5780601f106103a3576101008083540402835291602001916103ce565b820191906000526020600020905b8154815290600101906020018083116103b157829003601f168201915b5050505050908060010160009054906101000a900460ff16905082565b8280546103f79061087b565b90600052602060002090601f0160209004810192826104195760008555610460565b82601f1061043257803560ff1916838001178555610460565b82800160010185558215610460579182015b8281111561045f578235825591602001919060010190610444565b5b50905061046d91906104f7565b5090565b82805461047d9061087b565b90600052602060002090601f01602090048101928261049f57600085556104e6565b82601f106104b857805160ff19168380011785556104e6565b828001600101855582156104e6579182015b828111156104e55782518255916020019190600101906104ca565b5b5090506104f391906104f7565b5090565b5b808211156105105760008160009055506001016104f8565b5090565b600080fd5b600080fd5b6000819050919050565b6105318161051e565b811461053c57600080fd5b50565b60008135905061054e81610528565b92915050565b60006020828403121561056a57610569610514565b5b60006105788482850161053f565b91505092915050565b600080fd5b600080fd5b600080fd5b60008083601f8401126105a6576105a5610581565b5b8235905067ffffffffffffffff8111156105c3576105c2610586565b5b6020830191508360018202830111156105df576105de61058b565b5b9250929050565b6000806000604084860312156105ff576105fe610514565b5b600084013567ffffffffffffffff81111561061d5761061c610519565b5b61062986828701610590565b9350935050602061063c8682870161053f565b9150509250925092565b6000806020838503121561065d5761065c610514565b5b600083013567ffffffffffffffff81111561067b5761067a610519565b5b61068785828601610590565b92509250509250929050565b600081519050919050565b600082825260208201905092915050565b60005b838110156106cd5780820151818401526020810190506106b2565b838111156106dc576000848401525b50505050565b6000601f19601f8301169050919050565b60006106fe82610693565b610708818561069e565b93506107188185602086016106af565b610721816106e2565b840191505092915050565b60008115159050919050565b6107418161072c565b82525050565b6000604082019050818103600083015261076181856106f3565b90506107706020830184610738565b9392505050565b7f4e487b7100000000000000000000000000000000000000000000000000000000600052603260045260246000fd5b6107af8161051e565b82525050565b60006040820190506107ca6000830185610738565b6107d760208301846107a6565b9392505050565b82818337600083830152505050565b60006107f9838561069e565b93506108068385846107de565b61080f836106e2565b840190509392505050565b600060408201905081810360008301526108358185876107ed565b905061084460208301846107a6565b949350505050565b7f4e487b7100000000000000000000000000000000000000000000000000000000600052602260045260246000fd5b6000600282049050600182168061089357607f821691505b602082108114156108a7576108a661084c565b5b5091905056fea26469706673582212209acc0f99cb530a263950709aff08de90a0d66eeedb711c077bd4a416b9a3a1c864736f6c63430008090033",
  "immutableReferences": {},
  "source": "// SPDX-License-Identifier: MIT\n\npragma solidity ^0.8;\n\ncontract TodoList {\n    struct Todo{\n        string message;\n        bool completed;\n    }\n    Todo[] public todos;\n    event Add (\n        address indexed user,\n        string message,\n        uint timestamp\n    );\n    event ToggleCompleted (\n        address indexed user,\n        bool completed,\n        uint timestamp\n    );\n    function add (string calldata _message) external {\n        todos.push(Todo({message: _message, completed: false}));\n        emit Add(msg.sender, _message, block.timestamp);\n    }\n    function updateMessage(string calldata _message, uint _index) external {\n        todos[_index].message = _message;\n    }\n    function toggleCompleted (uint _index) external {\n        todos[_index].completed = !todos[_index].completed;\n        emit ToggleCompleted(msg.sender, !todos[_index].completed, block.timestamp);\n    }\n}",
  "sourcePath": "/Users/ethancemer/Documents/todo-dapp/src/contracts/TodoList.sol",
  "compiler": {
    "name": "solc",
    "version": "0.8.9+commit.e5eed63a.Emscripten.clang"
  },
  "schemaVersion": "3.4.3",
  "updatedAt": "2021-12-23T22:11:54.999Z",
  "networkType": "ethereum",
  "devdoc": {
    "kind": "dev",
    "methods": {},
    "version": 1
  },
  "userdoc": {
    "kind": "user",
    "methods": {},
    "version": 1
  }
}